{
    "address": "0x37D7f22F4ea8c4ca110F6886AC9f6C442a5410e2",
    "abi": [
        {
            "inputs": [
                {
                    "internalType": "address",
                    "name": "priceFeedAddress",
                    "type": "address"
                }
            ],
            "stateMutability": "nonpayable",
            "type": "constructor"
        },
        {
            "inputs": [],
            "name": "notOwner",
            "type": "error"
        },
        {
            "stateMutability": "payable",
            "type": "fallback"
        },
        {
            "inputs": [],
            "name": "fund",
            "outputs": [],
            "stateMutability": "payable",
            "type": "function"
        },
        {
            "inputs": [
                {
                    "internalType": "address",
                    "name": "",
                    "type": "address"
                }
            ],
            "name": "funders",
            "outputs": [
                {
                    "internalType": "uint256",
                    "name": "",
                    "type": "uint256"
                }
            ],
            "stateMutability": "view",
            "type": "function"
        },
        {
            "inputs": [
                {
                    "internalType": "uint256",
                    "name": "",
                    "type": "uint256"
                }
            ],
            "name": "fundersList",
            "outputs": [
                {
                    "internalType": "address",
                    "name": "",
                    "type": "address"
                }
            ],
            "stateMutability": "view",
            "type": "function"
        },
        {
            "inputs": [],
            "name": "i_owner",
            "outputs": [
                {
                    "internalType": "address",
                    "name": "",
                    "type": "address"
                }
            ],
            "stateMutability": "view",
            "type": "function"
        },
        {
            "inputs": [],
            "name": "priceFeed",
            "outputs": [
                {
                    "internalType": "contract AggregatorV3Interface",
                    "name": "",
                    "type": "address"
                }
            ],
            "stateMutability": "view",
            "type": "function"
        },
        {
            "inputs": [],
            "name": "withdraw",
            "outputs": [],
            "stateMutability": "nonpayable",
            "type": "function"
        },
        {
            "stateMutability": "payable",
            "type": "receive"
        }
    ],
    "transactionHash": "0x8a450444e4a1f8a57f90c75f9bea53d75aceb467e2fdb579a940533d2c03857e",
    "args": [
        "0x694AA1769357215DE4FAC081bf1f309aDC325306"
    ],
    "numDeployments": 1,
    "solcInputHash": "95c0d71e3823bf474e3b05e0164eacad",
    "bytecode": "0x60a060405234801561001057600080fd5b50604051610e0f380380610e0f83398181016040528101906100329190610110565b3373ffffffffffffffffffffffffffffffffffffffff1660808173ffffffffffffffffffffffffffffffffffffffff168152505080600260006101000a81548173ffffffffffffffffffffffffffffffffffffffff021916908373ffffffffffffffffffffffffffffffffffffffff1602179055505061013d565b600080fd5b600073ffffffffffffffffffffffffffffffffffffffff82169050919050565b60006100dd826100b2565b9050919050565b6100ed816100d2565b81146100f857600080fd5b50565b60008151905061010a816100e4565b92915050565b600060208284031215610126576101256100ad565b5b6000610134848285016100fb565b91505092915050565b608051610cb061015f600039600081816102a601526105450152610cb06000f3fe6080604052600436106100595760003560e01c8063031b3677146100725780633ccfd60b146100af57806347ff62c6146100c6578063741bef1a14610103578063b60d42881461012e578063dba6335f1461013857610068565b3661006857610066610163565b005b610070610163565b005b34801561007e57600080fd5b506100996004803603810190610094919061073e565b61028c565b6040516100a69190610784565b60405180910390f35b3480156100bb57600080fd5b506100c46102a4565b005b3480156100d257600080fd5b506100ed60048036038101906100e891906107cb565b6104de565b6040516100fa9190610807565b60405180910390f35b34801561010f57600080fd5b5061011861051d565b6040516101259190610881565b60405180910390f35b610136610163565b005b34801561014457600080fd5b5061014d610543565b60405161015a9190610807565b60405180910390f35b680324e964b3eca800006101a2600260009054906101000a900473ffffffffffffffffffffffffffffffffffffffff163461056790919063ffffffff16565b10156101e3576040517f08c379a00000000000000000000000000000000000000000000000000000000081526004016101da906108f9565b60405180910390fd5b6000339080600181540180825580915050600190039060005260206000200160009091909190916101000a81548173ffffffffffffffffffffffffffffffffffffffff021916908373ffffffffffffffffffffffffffffffffffffffff16021790555034600160003373ffffffffffffffffffffffffffffffffffffffff1673ffffffffffffffffffffffffffffffffffffffff16815260200190815260200160002081905550565b60016020528060005260406000206000915090505481565b7f000000000000000000000000000000000000000000000000000000000000000073ffffffffffffffffffffffffffffffffffffffff163373ffffffffffffffffffffffffffffffffffffffff1614610329576040517f251c9d6300000000000000000000000000000000000000000000000000000000815260040160405180910390fd5b60005b6000805490508110156103ce57600080828154811061034e5761034d610919565b5b9060005260206000200160009054906101000a900473ffffffffffffffffffffffffffffffffffffffff1690506000600160008373ffffffffffffffffffffffffffffffffffffffff1673ffffffffffffffffffffffffffffffffffffffff1681526020019081526020016000208190555050808060010191505061032c565b50600067ffffffffffffffff8111156103ea576103e9610948565b5b6040519080825280602002602001820160405280156104185781602001602082028036833780820191505090505b506000908051906020019061042e929190610634565b5060003373ffffffffffffffffffffffffffffffffffffffff1647604051610455906109a8565b60006040518083038185875af1925050503d8060008114610492576040519150601f19603f3d011682016040523d82523d6000602084013e610497565b606091505b50509050806104db576040517f08c379a00000000000000000000000000000000000000000000000000000000081526004016104d290610a09565b60405180910390fd5b50565b600081815481106104ee57600080fd5b906000526020600020016000915054906101000a900473ffffffffffffffffffffffffffffffffffffffff1681565b600260009054906101000a900473ffffffffffffffffffffffffffffffffffffffff1681565b7f000000000000000000000000000000000000000000000000000000000000000081565b600080610573836105a3565b90506000670de0b6b3a7640000858361058c9190610a58565b6105969190610ac9565b9050809250505092915050565b6000808273ffffffffffffffffffffffffffffffffffffffff1663feaf968c6040518163ffffffff1660e01b815260040160a060405180830381865afa1580156105f1573d6000803e3d6000fd5b505050506040513d601f19601f820116820180604052508101906106159190610b87565b5050509150506402540be4008161062c9190610c02565b915050919050565b8280548282559060005260206000209081019282156106ad579160200282015b828111156106ac5782518260006101000a81548173ffffffffffffffffffffffffffffffffffffffff021916908373ffffffffffffffffffffffffffffffffffffffff16021790555091602001919060010190610654565b5b5090506106ba91906106be565b5090565b5b808211156106d75760008160009055506001016106bf565b5090565b600080fd5b600073ffffffffffffffffffffffffffffffffffffffff82169050919050565b600061070b826106e0565b9050919050565b61071b81610700565b811461072657600080fd5b50565b60008135905061073881610712565b92915050565b600060208284031215610754576107536106db565b5b600061076284828501610729565b91505092915050565b6000819050919050565b61077e8161076b565b82525050565b60006020820190506107996000830184610775565b92915050565b6107a88161076b565b81146107b357600080fd5b50565b6000813590506107c58161079f565b92915050565b6000602082840312156107e1576107e06106db565b5b60006107ef848285016107b6565b91505092915050565b61080181610700565b82525050565b600060208201905061081c60008301846107f8565b92915050565b6000819050919050565b600061084761084261083d846106e0565b610822565b6106e0565b9050919050565b60006108598261082c565b9050919050565b600061086b8261084e565b9050919050565b61087b81610860565b82525050565b60006020820190506108966000830184610872565b92915050565b600082825260208201905092915050565b7f4e6f7420656e6f75676820657468657200000000000000000000000000000000600082015250565b60006108e360108361089c565b91506108ee826108ad565b602082019050919050565b60006020820190508181036000830152610912816108d6565b9050919050565b7f4e487b7100000000000000000000000000000000000000000000000000000000600052603260045260246000fd5b7f4e487b7100000000000000000000000000000000000000000000000000000000600052604160045260246000fd5b600081905092915050565b50565b6000610992600083610977565b915061099d82610982565b600082019050919050565b60006109b382610985565b9150819050919050565b7f43616c6c206661696c6564000000000000000000000000000000000000000000600082015250565b60006109f3600b8361089c565b91506109fe826109bd565b602082019050919050565b60006020820190508181036000830152610a22816109e6565b9050919050565b7f4e487b7100000000000000000000000000000000000000000000000000000000600052601160045260246000fd5b6000610a638261076b565b9150610a6e8361076b565b9250828202610a7c8161076b565b91508282048414831517610a9357610a92610a29565b5b5092915050565b7f4e487b7100000000000000000000000000000000000000000000000000000000600052601260045260246000fd5b6000610ad48261076b565b9150610adf8361076b565b925082610aef57610aee610a9a565b5b828204905092915050565b600069ffffffffffffffffffff82169050919050565b610b1981610afa565b8114610b2457600080fd5b50565b600081519050610b3681610b10565b92915050565b6000819050919050565b610b4f81610b3c565b8114610b5a57600080fd5b50565b600081519050610b6c81610b46565b92915050565b600081519050610b818161079f565b92915050565b600080600080600060a08688031215610ba357610ba26106db565b5b6000610bb188828901610b27565b9550506020610bc288828901610b5d565b9450506040610bd388828901610b72565b9350506060610be488828901610b72565b9250506080610bf588828901610b27565b9150509295509295909350565b6000610c0d82610b3c565b9150610c1883610b3c565b9250828202610c2681610b3c565b91507f80000000000000000000000000000000000000000000000000000000000000008414600084121615610c5e57610c5d610a29565b5b8282058414831517610c7357610c72610a29565b5b509291505056fea2646970667358221220b75588346252cb2758b7af029a08dc38c4fde454101f50b5551a6dcd27536b6c64736f6c634300081c0033",
    "devdoc": {
        "kind": "dev",
        "methods": {},
        "version": 1
    },
    "userdoc": {
        "kind": "user",
        "methods": {},
        "version": 1
    },
    "storageLayout": {
        "storage": [
            {
                "astId": 328,
                "contract": "contracts/FundMe.sol:FundMe",
                "label": "fundersList",
                "offset": 0,
                "slot": "0",
                "type": "t_array(t_address)dyn_storage"
            },
            {
                "astId": 332,
                "contract": "contracts/FundMe.sol:FundMe",
                "label": "funders",
                "offset": 0,
                "slot": "1",
                "type": "t_mapping(t_address,t_uint256)"
            },
            {
                "astId": 337,
                "contract": "contracts/FundMe.sol:FundMe",
                "label": "priceFeed",
                "offset": 0,
                "slot": "2",
                "type": "t_contract(AggregatorV3Interface)104"
            }
        ],
        "types": {
            "t_address": {
                "encoding": "inplace",
                "label": "address",
                "numberOfBytes": "20"
            },
            "t_array(t_address)dyn_storage": {
                "base": "t_address",
                "encoding": "dynamic_array",
                "label": "address[]",
                "numberOfBytes": "32"
            },
            "t_contract(AggregatorV3Interface)104": {
                "encoding": "inplace",
                "label": "contract AggregatorV3Interface",
                "numberOfBytes": "20"
            },
            "t_mapping(t_address,t_uint256)": {
                "encoding": "mapping",
                "key": "t_address",
                "label": "mapping(address => uint256)",
                "numberOfBytes": "32",
                "value": "t_uint256"
            },
            "t_uint256": {
                "encoding": "inplace",
                "label": "uint256",
                "numberOfBytes": "32"
            }
        }
    }
}