{
  "_format": "hh-sol-artifact-1",
  "contractName": "FundMe",
  "sourceName": "contracts/FundMe.sol",
  "abi": [
    {
      "inputs": [
        {
          "internalType": "address",
          "name": "priceFeedAddress",
          "type": "address"
        }
      ],
      "stateMutability": "nonpayable",
      "type": "constructor"
    },
    {
      "inputs": [],
      "name": "FundMe__NotOwner",
      "type": "error"
    },
    {
      "inputs": [],
      "name": "MINIMUM_USD",
      "outputs": [
        {
          "internalType": "uint256",
          "name": "",
          "type": "uint256"
        }
      ],
      "stateMutability": "view",
      "type": "function"
    },
    {
      "inputs": [],
      "name": "cheaperWithdraw",
      "outputs": [],
      "stateMutability": "payable",
      "type": "function"
    },
    {
      "inputs": [],
      "name": "fund",
      "outputs": [],
      "stateMutability": "payable",
      "type": "function"
    },
    {
      "inputs": [
        {
          "internalType": "address",
          "name": "funder",
          "type": "address"
        }
      ],
      "name": "getAddressValue",
      "outputs": [
        {
          "internalType": "uint256",
          "name": "",
          "type": "uint256"
        }
      ],
      "stateMutability": "view",
      "type": "function"
    },
    {
      "inputs": [
        {
          "internalType": "uint256",
          "name": "index",
          "type": "uint256"
        }
      ],
      "name": "getFundersList",
      "outputs": [
        {
          "internalType": "address",
          "name": "",
          "type": "address"
        }
      ],
      "stateMutability": "view",
      "type": "function"
    },
    {
      "inputs": [],
      "name": "getOwner",
      "outputs": [
        {
          "internalType": "address",
          "name": "",
          "type": "address"
        }
      ],
      "stateMutability": "view",
      "type": "function"
    },
    {
      "inputs": [],
      "name": "getPriceFeed",
      "outputs": [
        {
          "internalType": "contract AggregatorV3Interface",
          "name": "",
          "type": "address"
        }
      ],
      "stateMutability": "view",
      "type": "function"
    },
    {
      "inputs": [],
      "name": "withdraw",
      "outputs": [],
      "stateMutability": "nonpayable",
      "type": "function"
    }
  ],
  "bytecode": "0x60a060405234801561001057600080fd5b5060405161161738038061161783398181016040528101906100329190610258565b3373ffffffffffffffffffffffffffffffffffffffff1660808173ffffffffffffffffffffffffffffffffffffffff16815250506100ab6040518060400160405280601681526020017f5072696365206665656420616464726573733a20257300000000000000000000815250826100f260201b60201c565b80600260006101000a81548173ffffffffffffffffffffffffffffffffffffffff021916908373ffffffffffffffffffffffffffffffffffffffff16021790555050610383565b6101908282604051602401610108929190610324565b6040516020818303038152906040527f319af333000000000000000000000000000000000000000000000000000000007bffffffffffffffffffffffffffffffffffffffffffffffffffffffff19166020820180517bffffffffffffffffffffffffffffffffffffffffffffffffffffffff838183161783525050505061019460201b60201c565b5050565b6101b5816101b06101b860201b6108ea176101d960201b60201c565b60201c565b50565b60006a636f6e736f6c652e6c6f679050600080835160208501845afa505050565b6101eb60201b610a9c17819050919050565b6101f3610354565b565b600080fd5b600073ffffffffffffffffffffffffffffffffffffffff82169050919050565b6000610225826101fa565b9050919050565b6102358161021a565b811461024057600080fd5b50565b6000815190506102528161022c565b92915050565b60006020828403121561026e5761026d6101f5565b5b600061027c84828501610243565b91505092915050565b600081519050919050565b600082825260208201905092915050565b60005b838110156102bf5780820151818401526020810190506102a4565b60008484015250505050565b6000601f19601f8301169050919050565b60006102e782610285565b6102f18185610290565b93506103018185602086016102a1565b61030a816102cb565b840191505092915050565b61031e8161021a565b82525050565b6000604082019050818103600083015261033e81856102dc565b905061034d6020830184610315565b9392505050565b7f4e487b7100000000000000000000000000000000000000000000000000000000600052605160045260246000fd5b6080516112646103b3600039600081816101f0015281816104390152818161062e015261081e01526112646000f3fe60806040526004361061007b5760003560e01c806389b99dcc1161004e57806389b99dcc1461012a5780639e87a5cd14610167578063b60d428814610192578063be2693f01461019c5761007b565b8063084149f3146100805780633ccfd60b146100bd5780636b69a592146100d4578063893d20e8146100ff575b600080fd5b34801561008c57600080fd5b506100a760048036038101906100a29190610bb0565b6101a6565b6040516100b49190610bf6565b60405180910390f35b3480156100c957600080fd5b506100d26101ee565b005b3480156100e057600080fd5b506100e9610428565b6040516100f69190610bf6565b60405180910390f35b34801561010b57600080fd5b50610114610435565b6040516101219190610c20565b60405180910390f35b34801561013657600080fd5b50610151600480360381019061014c9190610c67565b61045d565b60405161015e9190610c20565b60405180910390f35b34801561017357600080fd5b5061017c6104a5565b6040516101899190610cf3565b60405180910390f35b61019a6104cf565b005b6101a461062c565b005b60008060008373ffffffffffffffffffffffffffffffffffffffff1673ffffffffffffffffffffffffffffffffffffffff168152602001908152602001600020549050919050565b7f000000000000000000000000000000000000000000000000000000000000000073ffffffffffffffffffffffffffffffffffffffff163373ffffffffffffffffffffffffffffffffffffffff1614610273576040517f579610db00000000000000000000000000000000000000000000000000000000815260040160405180910390fd5b60005b6001805490508110156103185760006001828154811061029957610298610d0e565b5b9060005260206000200160009054906101000a900473ffffffffffffffffffffffffffffffffffffffff16905060008060008373ffffffffffffffffffffffffffffffffffffffff1673ffffffffffffffffffffffffffffffffffffffff16815260200190815260200160002081905550508080600101915050610276565b50600067ffffffffffffffff81111561033457610333610d3d565b5b6040519080825280602002602001820160405280156103625781602001602082028036833780820191505090505b5060019080519060200190610378929190610aa6565b5060003373ffffffffffffffffffffffffffffffffffffffff164760405161039f90610d9d565b60006040518083038185875af1925050503d80600081146103dc576040519150601f19603f3d011682016040523d82523d6000602084013e6103e1565b606091505b5050905080610425576040517f08c379a000000000000000000000000000000000000000000000000000000000815260040161041c90610e0f565b60405180910390fd5b50565b680324e964b3eca8000081565b60007f0000000000000000000000000000000000000000000000000000000000000000905090565b60006001828154811061047357610472610d0e565b5b9060005260206000200160009054906101000a900473ffffffffffffffffffffffffffffffffffffffff169050919050565b6000600260009054906101000a900473ffffffffffffffffffffffffffffffffffffffff16905090565b680324e964b3eca8000061050e600260009054906101000a900473ffffffffffffffffffffffffffffffffffffffff163461090b90919063ffffffff16565b101561054f576040517f08c379a000000000000000000000000000000000000000000000000000000000815260040161054690610e7b565b60405180910390fd5b61057260405180606001604052806022815260200161120d602291393433610947565b346000803373ffffffffffffffffffffffffffffffffffffffff1673ffffffffffffffffffffffffffffffffffffffff16815260200190815260200160002060008282546105c09190610eca565b925050819055506001339080600181540180825580915050600190039060005260206000200160009091909190916101000a81548173ffffffffffffffffffffffffffffffffffffffff021916908373ffffffffffffffffffffffffffffffffffffffff160217905550565b7f000000000000000000000000000000000000000000000000000000000000000073ffffffffffffffffffffffffffffffffffffffff163373ffffffffffffffffffffffffffffffffffffffff16146106b1576040517f579610db00000000000000000000000000000000000000000000000000000000815260040160405180910390fd5b6000600180548060200260200160405190810160405280929190818152602001828054801561073557602002820191906000526020600020905b8160009054906101000a900473ffffffffffffffffffffffffffffffffffffffff1673ffffffffffffffffffffffffffffffffffffffff16815260200190600101908083116106eb575b5050505050905060005b81518110156107b957600082828151811061075d5761075c610d0e565b5b6020026020010151905060008060008373ffffffffffffffffffffffffffffffffffffffff1673ffffffffffffffffffffffffffffffffffffffff1681526020019081526020016000208190555050808060010191505061073f565b50600067ffffffffffffffff8111156107d5576107d4610d3d565b5b6040519080825280602002602001820160405280156108035781602001602082028036833780820191505090505b5060019080519060200190610819929190610aa6565b5060007f000000000000000000000000000000000000000000000000000000000000000073ffffffffffffffffffffffffffffffffffffffff164760405161086090610d9d565b60006040518083038185875af1925050503d806000811461089d576040519150601f19603f3d011682016040523d82523d6000602084013e6108a2565b606091505b50509050806108e6576040517f08c379a00000000000000000000000000000000000000000000000000000000081526004016108dd90610e0f565b60405180910390fd5b5050565b60006a636f6e736f6c652e6c6f679050600080835160208501845afa505050565b600080610917836109e6565b90506000670de0b6b3a764000085836109309190610efe565b61093a9190610f6f565b9050809250505092915050565b6109e183838360405160240161095f9392919061101f565b6040516020818303038152906040527f1c7ec448000000000000000000000000000000000000000000000000000000007bffffffffffffffffffffffffffffffffffffffffffffffffffffffff19166020820180517bffffffffffffffffffffffffffffffffffffffffffffffffffffffff8381831617835250505050610a77565b505050565b6000808273ffffffffffffffffffffffffffffffffffffffff1663feaf968c6040518163ffffffff1660e01b815260040160a060405180830381865afa158015610a34573d6000803e3d6000fd5b505050506040513d601f19601f82011682018060405250810190610a5891906110ea565b5050509150506402540be40081610a6f9190611165565b915050919050565b610a8e81610a866108ea610a91565b63ffffffff16565b50565b610a9c819050919050565b610aa46111dd565b565b828054828255906000526020600020908101928215610b1f579160200282015b82811115610b1e5782518260006101000a81548173ffffffffffffffffffffffffffffffffffffffff021916908373ffffffffffffffffffffffffffffffffffffffff16021790555091602001919060010190610ac6565b5b509050610b2c9190610b30565b5090565b5b80821115610b49576000816000905550600101610b31565b5090565b600080fd5b600073ffffffffffffffffffffffffffffffffffffffff82169050919050565b6000610b7d82610b52565b9050919050565b610b8d81610b72565b8114610b9857600080fd5b50565b600081359050610baa81610b84565b92915050565b600060208284031215610bc657610bc5610b4d565b5b6000610bd484828501610b9b565b91505092915050565b6000819050919050565b610bf081610bdd565b82525050565b6000602082019050610c0b6000830184610be7565b92915050565b610c1a81610b72565b82525050565b6000602082019050610c356000830184610c11565b92915050565b610c4481610bdd565b8114610c4f57600080fd5b50565b600081359050610c6181610c3b565b92915050565b600060208284031215610c7d57610c7c610b4d565b5b6000610c8b84828501610c52565b91505092915050565b6000819050919050565b6000610cb9610cb4610caf84610b52565b610c94565b610b52565b9050919050565b6000610ccb82610c9e565b9050919050565b6000610cdd82610cc0565b9050919050565b610ced81610cd2565b82525050565b6000602082019050610d086000830184610ce4565b92915050565b7f4e487b7100000000000000000000000000000000000000000000000000000000600052603260045260246000fd5b7f4e487b7100000000000000000000000000000000000000000000000000000000600052604160045260246000fd5b600081905092915050565b50565b6000610d87600083610d6c565b9150610d9282610d77565b600082019050919050565b6000610da882610d7a565b9150819050919050565b600082825260208201905092915050565b7f43616c6c206661696c6564000000000000000000000000000000000000000000600082015250565b6000610df9600b83610db2565b9150610e0482610dc3565b602082019050919050565b60006020820190508181036000830152610e2881610dec565b9050919050565b7f4e6f7420656e6f75676820657468657200000000000000000000000000000000600082015250565b6000610e65601083610db2565b9150610e7082610e2f565b602082019050919050565b60006020820190508181036000830152610e9481610e58565b9050919050565b7f4e487b7100000000000000000000000000000000000000000000000000000000600052601160045260246000fd5b6000610ed582610bdd565b9150610ee083610bdd565b9250828201905080821115610ef857610ef7610e9b565b5b92915050565b6000610f0982610bdd565b9150610f1483610bdd565b9250828202610f2281610bdd565b91508282048414831517610f3957610f38610e9b565b5b5092915050565b7f4e487b7100000000000000000000000000000000000000000000000000000000600052601260045260246000fd5b6000610f7a82610bdd565b9150610f8583610bdd565b925082610f9557610f94610f40565b5b828204905092915050565b600081519050919050565b60005b83811015610fc9578082015181840152602081019050610fae565b60008484015250505050565b6000601f19601f8301169050919050565b6000610ff182610fa0565b610ffb8185610db2565b935061100b818560208601610fab565b61101481610fd5565b840191505092915050565b600060608201905081810360008301526110398186610fe6565b90506110486020830185610be7565b6110556040830184610c11565b949350505050565b600069ffffffffffffffffffff82169050919050565b61107c8161105d565b811461108757600080fd5b50565b60008151905061109981611073565b92915050565b6000819050919050565b6110b28161109f565b81146110bd57600080fd5b50565b6000815190506110cf816110a9565b92915050565b6000815190506110e481610c3b565b92915050565b600080600080600060a0868803121561110657611105610b4d565b5b60006111148882890161108a565b9550506020611125888289016110c0565b9450506040611136888289016110d5565b9350506060611147888289016110d5565b92505060806111588882890161108a565b9150509295509295909350565b60006111708261109f565b915061117b8361109f565b92508282026111898161109f565b91507f800000000000000000000000000000000000000000000000000000000000000084146000841216156111c1576111c0610e9b565b5b82820584148315176111d6576111d5610e9b565b5b5092915050565b7f4e487b7100000000000000000000000000000000000000000000000000000000600052605160045260246000fdfe53656e64696e6720257320746f2074686520636f6e74726163742066726f6d202573a26469706673582212203b9b29c7cf6791bf80e570badc3f4d302082a5ba3e9eccc7bf9adeea4e3472a864736f6c634300081c0033",
  "linkReferences": {},
  "deployedLinkReferences": {}
}